:10000000482EFF3FFF3FFF3FFF00030E8301C80064
:100010000408C7000A08C9008A0171088316A200F3
:100020007008A100013083120C05F1007108013A3B
:10003000031D1E28A10A0319A20A0C1000300B1977
:100040000130F1007108013A031D2C28FF30A30094
:10005000A40A833081000B1183162208F1002108C5
:10006000F000831249088A0047088400480E830084
:10007000FF0E7F0E0900013003138312FA00FA0B02
:100080003F2808001D3003138312FB00FF30FA00E5
:10009000FB0B4B284E28FA0B4B2848287E30FA00E1
:1000A000FA0B502800000800423003138312FA00B4
:1000B000FA0B582800000800031383122508840057
:1000C0002609F000700880052709F00070088005F7
:1000D000280884002A082904F0002B08F0042C08C2
:1000E000F004F0097008800500308316A01B013071
:1000F000F1007108013A031D802883122908800449
:100100000313831200308316201B0130F1007108A5
:10011000013A031D8E2883122A08800403138312D8
:1001200000308316A01A0130F1007108013A031D56
:100130009C2883122B08800403138312003083163B
:10014000201A0130F1007108013A031DAA28831218
:100150002C08800403138312250884002D08013A1B
:10016000031DB7282709F00070088005B928270863
:100170008004260880043B202609F00070088005D2
:100180002709F00070088005280884002A0829043F
:10019000F0002B08F0042C08F004F009700880052A
:1001A00000308316A0190130F1007108013A031DD7
:1001B000DC2883122908800403138312003083167D
:1001C00020190130F1007108013A031DEA28831259
:1001D0002A0880040313831200308316A01801300C
:1001E000F1007108013A031DF82883122B088004DE
:1001F00003138312013083162005F1007108013AC0
:10020000031D052983122C0880040313831225087B
:1002100084002D08013A031D12292709F0007008F7
:100220008005142927088004260880043B2026091D
:10023000F000700880052D08013A031D2129422095
:1002400022295420080003138312AD016F0883167E
:10025000A0005C200130AD00080003138312740875
:10026000F8027508031C750FF9027608031C760F57
:10027000FA027708031C770FFB02F30D0730FC002E
:10028000730DF80DF90DFA0DFB0D7408731C56294A
:10029000F8027508031C750FF9027608031C760F27
:1002A000FA027708031C770FFB026329F807750829
:1002B0000318750FF90776080318760FFA07770801
:1002C0000318770FFB07F30DFC0B4029720DF80D97
:1002D000F90DFA0DFB0D7408731C7C29F8027508E2
:1002E000031C750FF9027608031C760FFA027708D3
:1002F000031C770FFB028929F80775080318750F8F
:10030000F90776080318760FFA0777080318770FAE
:10031000FB07F20D0730FC00720DF80DF90DFA0D18
:10032000FB0D7408721CA229F8027508031C750FD6
:10033000F9027608031C760FFA027708031C770F80
:10034000FB02AF29F80775080318750FF90776083F
:100350000318760FFA0777080318770FFB07F20DDB
:10036000FC0B8C29710DF80DF90DFA0DFB0D7408BD
:10037000721CC829F8027508031C750FF90276086B
:10038000031C760FFA027708031C770FFB02D529AE
:10039000F80775080318750FF90776080318760F24
:1003A000FA0777080318770FFB07F10D0730FC00F9
:1003B000710DF80DF90DFA0DFB0D7408711CEE2985
:1003C000F8027508031C750FF9027608031C760FF6
:1003D000FA027708031C770FFB02FB29F807750860
:1003E0000318750FF90776080318760FFA077708D0
:1003F0000318770FFB07F10DFC0BD829700DF80DD2
:10040000F90DFA0DFB0D7408711C142AF802750819
:10041000031C750FF9027608031C760FFA027708A1
:10042000031C770FFB02212AF80775080318750FC4
:10043000F90776080318760FFA0777080318770F7D
:10044000FB07F00D0730FC00700DF80DF90DFA0DEB
:10045000FB0D7408701C3A2AF8027508031C750F0E
:10046000F9027608031C760FFA027708031C770F4F
:10047000FB02472AF80775080318750FF907760875
:100480000318760FFA0777080318770FFB07F00DAC
:10049000FC0B242A70185A2A7408F80775080318E8
:1004A000750FF90776080318760FFA07770803180F
:1004B000770FFB07080003138312FB09FA09F909F8
:1004C000F809F80A0319F90A0319FA0A0319FB0AC9
:1004D00008004220422042206708F0000130F4006A
:1004E00070080319772AF40D7410FF3F712A7408FD
:1004F000A9006808F0000130F30070080319842A8D
:10050000F30D7310FF3F7E2A7308AA006908F000FC
:100510000130F20070080319912AF20D7210FF3FAA
:100520008B2A7208AB006A08F0000130F1007008F5
:1005300003199E2AF10D7110FF3F982A7108AC0033
:100540006C08F0000130A70070080319AB2AA70D52
:100550002710FF3FA52A6D08F0000130AE0070089B
:100560000319B62AAE0D2E10FF3FB02A6E08F00018
:100570000130A60070080319C12AA60D2610FF3FFE
:10058000BB2A6608A8006B08A500660884007308EB
:100590007404F0007208F0047108F004F0097008A7
:1005A000800584172A082904F0002B08F0042C0881
:1005B000F004F009700880058413250884002E08D3
:1005C0002704F0002608F004F0097008800584175D
:1005D0002E082704F0002608F004F00970088005B2
:1005E0008413280884002B080004F0002C087004F1
:1005F000800025088400260880042609F000700881
:1006000080054220260880042609F0007008800535
:100610004220260880042609F00070088005422048
:10062000280884002B0880042C09F000700880053D
:1006300025088400260880042609F000700880053B
:100640004220260880042609F10071088005280848
:1006500084002B09F0007008800529088004250813
:100660008400260880047108800542202808840040
:100670002909F000700880052C08800425088400F2
:10068000260880042609F1007108800528088400E6
:100690002C09F000700880052508840026088004D5
:1006A000710880054220260880042609F0007008A1
:1006B0008005280884002C0880042508840026086A
:1006C0008004700880054220280884002C09F0006E
:1006D0007008800525088400260880042609F1009A
:1006E00071088005280884002C080004F0002B08FD
:1006F000F0042A08F004290870048000250884000A
:10070000260880047108800542200130AD000800F1
:10071000031383126608013A031D912B8030E60013
:10072000A82B6608023A031D982BC030E600A82BC0
:100730006608033A031D9F2B9430E600A82B660839
:10074000043A031DA62BD430E600A82B8030E60027
:100750006703F0006608F0077008E600700883166B
:10076000A0005C20AD01E901690868078400000869
:10077000F2007208003A0319C52B69086807840063
:100780000008EF002321E90AB42B0130AD00080076
:1007900003138312FC01F71BFC0AFD01FB01FA01A4
:1007A000F901F801730872047104700403195C2CD8
:1007B00073087706A000A01BFD09F71FEA2BF409B8
:1007C000F509F609F709F40A0319F50A0319F60AF7
:1007D0000319F70AF31FF72BF009F109F209F309DE
:1007E000F00A0319F10A0319F20A0319F30A73084C
:1007F0007704A000A01B182C2D21FC1B352CFD1FFD
:100800005C2CF009F109F209F309F00A0319F10A65
:100810000319F20A0319F30AF809F909FA09FB099D
:10082000F80A0319F90A0319FA0A0319FB0A5C2CDE
:10083000F71F2F2CF31B292C7308FB007208FA00FA
:100840007108F9007008F800F301F201F101F001FC
:10085000FF2BF301F201F101F001F00A0034F3097A
:10086000F209F109F009FC17FC2BF80A0319F90A3F
:100870000319FA0A0319FB0A74087802031DFF2BF7
:1008800075087902031DFF2B76087A02031DFF2BE2
:1008900077087B02031DFF2BFB01FA01F901F80128
:1008A000F00A0319F10A0319F20A0319F30AF31FF4
:1008B000FF2BA0012016FF34A0017C1C602C5B22C2
:1008C000003F0800031383122230FC00F801F901F5
:1008D000FA01FB01FC030319982C0310FB0CFA0C22
:1008E000F90CF80CF30CF20CF10CF00C031C6A2C54
:1008F000FC0303198A2C7408F80775080318750F90
:10090000F90776080318760FFA0777080318770FA8
:10091000FB076E2C7408F80775080318750FF907A4
:1009200076080318760FFA0777080318770FFB0786
:1009300008000730031383129F008316051006304A
:100940008312E6000330E7000230E8000130E900DE
:10095000EA010630EB000430EC000730ED00053012
:10096000EE006922C030831686000C30A0005C20A7
:100970000630900083160C140730810083308312F8
:1009800081008B160B110B178B170C10AF01B001E8
:10099000B101B201A301A401A101A2010800031346
:1009A0008312DD01DC015C08073C031CED2C5D308B
:1009B000F0005C087007F1005C085B078400000829
:1009C000F0007108840071088400700880005C08E1
:1009D000073A0319ED2CDC0AD32C0130E600013074
:1009E000E7005D30E8008823DC015C08073C031C5D
:1009F000122D5D30F0005C087007F10008305C07D4
:100A0000F00070085B0784000008F00071088400A3
:100A100071088400700880005C08073A0319122DE1
:100A2000DC0AF52C0230E6000130E7005D30E8001A
:100A300088230800031383125E08803A031D2A2DC1
:100A40005D08003A031D2A2D5C08003A031D2A2D7B
:100A50005B08003A031D512D5F0884002D30800093
:100A6000840A32308000840A31308000840A3430B5
:100A70008000840A37308000840A34308000840A81
:100A800038308000840A33308000840A3630800099
:100A9000840A34308000840A38308000840A80015F
:100AA0000C2EE10180305E06F00080307002031DE4
:100AB000632D00305D02031D632D00305C02031DB9
:100AC000632D00305B020318812DFF30E100F0013F
:100AD000F101F201F3015B08F0025C08031C5C0FFA
:100AE000F1025D08031C5D0FF2025E08031C5E0F3D
:100AF000F3027008DB007108DC007208DD00730887
:100B0000DE000130E0005B08E2005C08E3005D0805
:100B1000E4005E08E5000030F0006506031D9A2D34
:100B200070086406031D9A2D70086306031D9A2D34
:100B30006208003A0319B42D0A30F400F501F601F9
:100B4000F7016208F0006308F1006408F20065082C
:100B5000F300C8237008E2007108E3007208E400A3
:100B60007308E500E00A8B2DE0035F088400203065
:100B70008000840A8000840A8000840A8000840A3D
:100B80008000840A8000840A8000840A8000840A2D
:100B90008000840A8000840A30308000840A80014A
:100BA00084036008003C0318072E0A30F400F501A6
:100BB000F601F7015B08F0005C08F1005D08F20047
:100BC0005E08F300C8237808F0007908F1007A087D
:100BD000F2007B08F30030307007800084030A3095
:100BE000F400F501F601F7015B08F0005C08F10084
:100BF0005D08F2005E08F300C8237008DB0071088E
:100C0000DC007208DD007308DE00E003D12D61080E
:100C100003190C2E2D308000080003138312FD01F0
:100C2000F31F1F2EF009F109F209F309F00A031965
:100C3000F10A0319F20A0319F30A8130FD07F71FBD
:100C40002D2EF409F509F609F709F40A0319F50A36
:100C50000319F60A0319F70AFD0A62247D1C472EC0
:100C6000F009F109F209F309F809F909FA09FB0990
:100C7000F00A0319F10A0319F20A0319F30A031916
:100C8000F80A0319F90A0319FA0A0319FB0A0800FA
:100C900099244730CA002E30CB004330CC0061305D
:100CA000CD007230CE002030CF004630D000723000
:100CB000D1006530D2007130D3002E30D4006D30B9
:100CC000D5006530D6007430D7006530D80072305A
:100CD000D900DA014A30DB00CF2405101530FC00C2
:100CE000FF30FB00FF30FA00FC0B772E7E2EFB0B53
:100CF0007A2E7D2EFA0B7A2E772E742E6630FB001C
:100D0000FF30FA00FB0B852E882EFA0B852E822EE3
:100D10001230FA00FA0B8A2E00002030CA00203070
:100D2000CB002030CC002030CD002030CE00203051
:100D3000CF002030D0002030D1002030D200203031
:100D4000D3002030D4002030D5002030D600203011
:100D5000D7004830D8007A30D900DA014A30DB00B9
:100D6000CF2423080319492FA30124087D3A031D2A
:100D7000492FA401330803193D2F10102108F80052
:100D80002208F900FA01FB017908FB007808FA0053
:100D9000F801F9017808AF007908B0007A08B100CD
:100DA0007B08B2000F08F400F5017408F500F401A7
:100DB0007408B4007508B5000E087404F0007508D6
:100DC000F1000030F1047008B4007108B50070083B
:100DD0007804F40071087904F5007A08F6007B08BD
:100DE000F7000030F604F7047408AF007508B0008F
:100DF0007608B1007708B2008030F00080307706C6
:100E00007002031D0D2F7608003C031D0D2F750881
:100E1000003C031D0D2F7408003C03182C2F2108E3
:100E2000F0002208F100F201F3012E30F40000304E
:100E3000F5000030F6000030F7000D267008AF0214
:100E40007108031C710FB0027208031C720FB1020B
:100E50007308031C730FB202B30105142F08DB00E3
:100E60003008DC003108DD003208DE003630DF00FB
:100E70001A253630DB00CF24492F8F018E01101444
:100E8000AF01B001B101B201A101A201FF30B30075
:100E90000510B12E4A2FFF3FFF3FFF3FFF3FFF3FAF
:02400E006A3F07
:00000001FF
